{
  "contractName": "Duplicate",
  "abi": [
    {
      "inputs": [
        {
          "internalType": "uint256",
          "name": "_rate",
          "type": "uint256"
        },
        {
          "internalType": "address payable",
          "name": "_wallet",
          "type": "address"
        },
        {
          "internalType": "contract Token",
          "name": "_token",
          "type": "address"
        },
        {
          "internalType": "address",
          "name": "_manager",
          "type": "address"
        }
      ],
      "stateMutability": "nonpayable",
      "type": "constructor"
    },
    {
      "anonymous": false,
      "inputs": [
        {
          "indexed": true,
          "internalType": "address",
          "name": "_buyer",
          "type": "address"
        },
        {
          "indexed": true,
          "internalType": "uint256",
          "name": "_amount",
          "type": "uint256"
        },
        {
          "indexed": true,
          "internalType": "uint256",
          "name": "_tokens",
          "type": "uint256"
        },
        {
          "indexed": false,
          "internalType": "uint256",
          "name": "timeStamp",
          "type": "uint256"
        }
      ],
      "name": "TokenPurchase",
      "type": "event"
    },
    {
      "inputs": [
        {
          "internalType": "address",
          "name": "_recipientAddress",
          "type": "address"
        },
        {
          "internalType": "uint256",
          "name": "_amount",
          "type": "uint256"
        }
      ],
      "name": "buyTokens",
      "outputs": [],
      "stateMutability": "payable",
      "type": "function"
    }
  ],
  "bytecode": "0x608060405260006005553480156200001657600080fd5b5060405162000e0338038062000e0383398181016040528101906200003c919062000227565b6000600254141562000085576040517f08c379a00000000000000000000000000000000000000000000000000000000081526004016200007c9062000339565b60405180910390fd5b600073ffffffffffffffffffffffffffffffffffffffff168373ffffffffffffffffffffffffffffffffffffffff161415620000f8576040517f08c379a0000000000000000000000000000000000000000000000000000000008152600401620000ef9062000317565b60405180910390fd5b8360028190555082600460006101000a81548173ffffffffffffffffffffffffffffffffffffffff021916908373ffffffffffffffffffffffffffffffffffffffff160217905550816000806101000a81548173ffffffffffffffffffffffffffffffffffffffff021916908373ffffffffffffffffffffffffffffffffffffffff16021790555080600160006101000a81548173ffffffffffffffffffffffffffffffffffffffff021916908373ffffffffffffffffffffffffffffffffffffffff160217905550505050506200043a565b600081519050620001dc81620003d2565b92915050565b600081519050620001f381620003ec565b92915050565b6000815190506200020a8162000406565b92915050565b600081519050620002218162000420565b92915050565b600080600080608085870312156200023e57600080fd5b60006200024e8782880162000210565b94505060206200026187828801620001e2565b93505060406200027487828801620001f9565b92505060606200028787828801620001cb565b91505092959194509250565b6000620002a2601e836200035b565b91507f426f74682063616e206e6f742062652073616d652061646472657373657300006000830152602082019050919050565b6000620002e46017836200035b565b91507f526174652068617320746f206265206e6f6e2d7a65726f0000000000000000006000830152602082019050919050565b60006020820190508181036000830152620003328162000293565b9050919050565b600060208201905081810360008301526200035481620002d5565b9050919050565b600082825260208201905092915050565b60006200037982620003a8565b9050919050565b60006200038d82620003a8565b9050919050565b6000620003a1826200036c565b9050919050565b600073ffffffffffffffffffffffffffffffffffffffff82169050919050565b6000819050919050565b620003dd816200036c565b8114620003e957600080fd5b50565b620003f78162000380565b81146200040357600080fd5b50565b620004118162000394565b81146200041d57600080fd5b50565b6200042b81620003c8565b81146200043757600080fd5b50565b6109b9806200044a6000396000f3fe60806040526004361061001e5760003560e01c80630752881a14610023575b600080fd5b61003d60048036038101906100389190610451565b61003f565b005b6000339050600061005b600254846100e290919063ffffffff16565b9050610067828461012c565b610071848261029f565b6100868160055461035190919063ffffffff16565b60058190555080838373ffffffffffffffffffffffffffffffffffffffff167f347f5f0051b895093800553e6e78ef332849e2552639a4f5ffe66535788ae078426040516100d49190610796565b60405180910390a450505050565b600061012483836040518060400160405280601a81526020017f536166654d6174683a206469766973696f6e206279207a65726f0000000000008152506103af565b905092915050565b6117706005541115610173576040517f08c379a000000000000000000000000000000000000000000000000000000000815260040161016a90610736565b60405180910390fd5b6706f05b59d3b2000081101580156101935750678ac7230489e800008111155b6101d2576040517f08c379a00000000000000000000000000000000000000000000000000000000081526004016101c990610756565b60405180910390fd5b600073ffffffffffffffffffffffffffffffffffffffff168273ffffffffffffffffffffffffffffffffffffffff1614158061025c5750600160009054906101000a900473ffffffffffffffffffffffffffffffffffffffff1673ffffffffffffffffffffffffffffffffffffffff168273ffffffffffffffffffffffffffffffffffffffff1614155b61029b576040517f08c379a000000000000000000000000000000000000000000000000000000000815260040161029290610776565b60405180910390fd5b5050565b60008054906101000a900473ffffffffffffffffffffffffffffffffffffffff1673ffffffffffffffffffffffffffffffffffffffff1663a9059cbb83836040518363ffffffff1660e01b81526004016102fa9291906106cb565b602060405180830381600087803b15801561031457600080fd5b505af1158015610328573d6000803e3d6000fd5b505050506040513d601f19601f8201168201806040525081019061034c919061048d565b505050565b600080828461036091906107cd565b9050838110156103a5576040517f08c379a000000000000000000000000000000000000000000000000000000000815260040161039c90610716565b60405180910390fd5b8091505092915050565b600080831182906103f6576040517f08c379a00000000000000000000000000000000000000000000000000000000081526004016103ed91906106f4565b60405180910390fd5b50600083856104059190610823565b9050809150509392505050565b6000813590506104218161093e565b92915050565b60008151905061043681610955565b92915050565b60008135905061044b8161096c565b92915050565b6000806040838503121561046457600080fd5b600061047285828601610412565b92505060206104838582860161043c565b9150509250929050565b60006020828403121561049f57600080fd5b60006104ad84828501610427565b91505092915050565b6104bf81610854565b82525050565b60006104d0826107b1565b6104da81856107bc565b93506104ea81856020860161089c565b6104f38161092d565b840191505092915050565b600061050b601b836107bc565b91507f536166654d6174683a206164646974696f6e206f766572666c6f7700000000006000830152602082019050919050565b600061054b6008836107bc565b91507f536f6c64206f75740000000000000000000000000000000000000000000000006000830152602082019050919050565b600061058b60b4836107bc565b91507f596f752063616e206f6e6c79207075726368617365207769746820616d6f756e60008301527f7473206265747765656e20302e3520657468657220746f20313020657468657260208301527f2e20416c7465726e61746976656c792c2074686520746f6b656e73206176616960408301527f6c61626c6520666f722073616c65206d61796265206c657373207468616e203060608301527f2e352065746865722e20577269746520746f20646576406f70656e2e736f207760808301527f69746820746869732073637265656e73686f742e00000000000000000000000060a083015260c082019050919050565b6000610689601d836107bc565b91507f42757965722063616e206e6f74206265207a65726f20616464726573730000006000830152602082019050919050565b6106c581610892565b82525050565b60006040820190506106e060008301856104b6565b6106ed60208301846106bc565b9392505050565b6000602082019050818103600083015261070e81846104c5565b905092915050565b6000602082019050818103600083015261072f816104fe565b9050919050565b6000602082019050818103600083015261074f8161053e565b9050919050565b6000602082019050818103600083015261076f8161057e565b9050919050565b6000602082019050818103600083015261078f8161067c565b9050919050565b60006020820190506107ab60008301846106bc565b92915050565b600081519050919050565b600082825260208201905092915050565b60006107d882610892565b91506107e383610892565b9250827fffffffffffffffffffffffffffffffffffffffffffffffffffffffffffffffff03821115610818576108176108cf565b5b828201905092915050565b600061082e82610892565b915061083983610892565b925082610849576108486108fe565b5b828204905092915050565b600061085f82610872565b9050919050565b60008115159050919050565b600073ffffffffffffffffffffffffffffffffffffffff82169050919050565b6000819050919050565b60005b838110156108ba57808201518184015260208101905061089f565b838111156108c9576000848401525b50505050565b7f4e487b7100000000000000000000000000000000000000000000000000000000600052601160045260246000fd5b7f4e487b7100000000000000000000000000000000000000000000000000000000600052601260045260246000fd5b6000601f19601f8301169050919050565b61094781610854565b811461095257600080fd5b50565b61095e81610866565b811461096957600080fd5b50565b61097581610892565b811461098057600080fd5b5056fea2646970667358221220806d436a7f10141a18dfee35277dc80a230528f30803a0b208c8b87fed40eca964736f6c63430008000033",
  "immutableReferences": {},
  "source": "// SPDX-License-Identifier: MIT\npragma solidity ^0.8.0;\n\nimport \"contracts/Token.sol\";\nimport \"contracts/util/SafeMath.sol\";\n\ncontract Duplicate  {\n    using SafeMath for uint256;\n    Token private token;\n\n    address manager;\n\n    uint256 rate;\n    uint256 weiRaised;\n    address payable wallet;\n    uint256 tokenSold = 0;\n    uint256 tokenAvailable;\n\n    event TokenPurchase(\n        address indexed _buyer,\n        uint256 indexed _amount,\n        uint256 indexed _tokens,\n        uint256 timeStamp\n    );\n\n    constructor(uint256 _rate, address payable _wallet, Token _token, address _manager)   {\n        require(rate !=0, \"Rate has to be non-zero\");\n        require(_wallet != address(0), \"Both can not be same addresses\");\n\n        rate = _rate;\n        wallet = _wallet;\n        token = _token;\n        manager =_manager;\n    }\n\n    //Public view functions - rate, wallet, token, \n\n    // function availableTokens(uint256 _amount) external {\n    //     require(msg.sender == manager, \"You do not have necessary permissions\");\n    //     token.mint(manager, _amount);\n    // }\n    function buyTokens(address _recipientAddress,uint256 _amount) public payable {\n        address buyer = msg.sender;\n        uint256 _value = _amount.div(rate);\n        \n        _prePurchaseCheck(buyer, _amount);\n        // uint256 _value = _amount.div(rate);\n        // uint256 _value = _amount.mul(10**18).div(rate);\n\n        _processPurchase(_recipientAddress, _value);\n        tokenSold = tokenSold.add(_value);\n        // tokenAvailable = 6000.sub(tokenSold);\n        emit TokenPurchase(buyer, _amount, _value, block.timestamp);\n\n    }\n\n    function _prePurchaseCheck(address buyer, uint256 _amount) internal view {\n        require(tokenSold <= 6000, \"Sold out\");\n        require(_amount >= 0.5 ether && _amount<= 10 ether, \"You can only purchase with amounts between 0.5 ether to 10 ether. Alternatively, the tokens available for sale maybe less than 0.5 ether. Write to dev@open.so with this screenshot.\");\n        require(buyer != address(0) || buyer != manager, \"Buyer can not be zero address\");\n        this;\n    }\n    function _processPurchase(address _recipient, uint256 _value) internal {\n        token.transfer(_recipient, _value);\n        this;\n    }\n\n}",
  "sourcePath": "/Volumes/media/1 - OSO/Projects/Open Finance/Build/open_build/open-core-contracts/contracts/util/Duplicate.sol",
  "compiler": {
    "name": "solc",
    "version": "0.8.0+commit.c7dfd78e.Emscripten.clang"
  },
  "schemaVersion": "3.3.2",
  "updatedAt": "2020-12-22T17:05:37.947Z",
  "devdoc": {
    "kind": "dev",
    "methods": {},
    "version": 1
  },
  "userdoc": {
    "kind": "user",
    "methods": {},
    "version": 1
  }
}