{
  "contractName": "Token",
  "abi": [
    {
      "inputs": [
        {
          "internalType": "string",
          "name": "_name",
          "type": "string"
        },
        {
          "internalType": "uint256",
          "name": "_decimals",
          "type": "uint256"
        },
        {
          "internalType": "string",
          "name": "_symbol",
          "type": "string"
        },
        {
          "internalType": "uint256",
          "name": "_initialSupply",
          "type": "uint256"
        }
      ],
      "stateMutability": "nonpayable",
      "type": "constructor"
    },
    {
      "anonymous": false,
      "inputs": [
        {
          "indexed": true,
          "internalType": "address",
          "name": "_owner",
          "type": "address"
        },
        {
          "indexed": true,
          "internalType": "address",
          "name": "_spender",
          "type": "address"
        },
        {
          "indexed": true,
          "internalType": "uint256",
          "name": "_value",
          "type": "uint256"
        },
        {
          "indexed": false,
          "internalType": "uint256",
          "name": "_timeStamp",
          "type": "uint256"
        }
      ],
      "name": "Approval",
      "type": "event"
    },
    {
      "anonymous": false,
      "inputs": [
        {
          "indexed": true,
          "internalType": "address",
          "name": "_from",
          "type": "address"
        },
        {
          "indexed": true,
          "internalType": "address",
          "name": "_to",
          "type": "address"
        },
        {
          "indexed": true,
          "internalType": "uint256",
          "name": "_value",
          "type": "uint256"
        },
        {
          "indexed": false,
          "internalType": "uint256",
          "name": "_timeStamp",
          "type": "uint256"
        }
      ],
      "name": "Transfer",
      "type": "event"
    },
    {
      "inputs": [],
      "name": "_totalSupply",
      "outputs": [
        {
          "internalType": "uint256",
          "name": "",
          "type": "uint256"
        }
      ],
      "stateMutability": "view",
      "type": "function",
      "constant": true
    },
    {
      "inputs": [],
      "name": "admin",
      "outputs": [
        {
          "internalType": "address",
          "name": "",
          "type": "address"
        }
      ],
      "stateMutability": "view",
      "type": "function",
      "constant": true
    },
    {
      "inputs": [],
      "name": "decimals",
      "outputs": [
        {
          "internalType": "uint256",
          "name": "",
          "type": "uint256"
        }
      ],
      "stateMutability": "view",
      "type": "function",
      "constant": true
    },
    {
      "inputs": [],
      "name": "name",
      "outputs": [
        {
          "internalType": "string",
          "name": "",
          "type": "string"
        }
      ],
      "stateMutability": "view",
      "type": "function",
      "constant": true
    },
    {
      "inputs": [],
      "name": "symbol",
      "outputs": [
        {
          "internalType": "string",
          "name": "",
          "type": "string"
        }
      ],
      "stateMutability": "view",
      "type": "function",
      "constant": true
    },
    {
      "inputs": [
        {
          "internalType": "address",
          "name": "_account",
          "type": "address"
        }
      ],
      "name": "balanceOf",
      "outputs": [
        {
          "internalType": "uint256",
          "name": "",
          "type": "uint256"
        }
      ],
      "stateMutability": "view",
      "type": "function",
      "constant": true
    },
    {
      "inputs": [
        {
          "internalType": "address",
          "name": "_owner",
          "type": "address"
        },
        {
          "internalType": "address",
          "name": "_spender",
          "type": "address"
        }
      ],
      "name": "allowances",
      "outputs": [
        {
          "internalType": "uint256",
          "name": "",
          "type": "uint256"
        }
      ],
      "stateMutability": "view",
      "type": "function",
      "constant": true
    },
    {
      "inputs": [
        {
          "internalType": "address",
          "name": "_to",
          "type": "address"
        },
        {
          "internalType": "uint256",
          "name": "_value",
          "type": "uint256"
        }
      ],
      "name": "transfer",
      "outputs": [
        {
          "internalType": "bool",
          "name": "success",
          "type": "bool"
        }
      ],
      "stateMutability": "nonpayable",
      "type": "function"
    },
    {
      "inputs": [
        {
          "internalType": "address",
          "name": "_spender",
          "type": "address"
        },
        {
          "internalType": "uint256",
          "name": "_value",
          "type": "uint256"
        }
      ],
      "name": "approve",
      "outputs": [
        {
          "internalType": "bool",
          "name": "",
          "type": "bool"
        }
      ],
      "stateMutability": "nonpayable",
      "type": "function"
    },
    {
      "inputs": [
        {
          "internalType": "address",
          "name": "_from",
          "type": "address"
        },
        {
          "internalType": "address",
          "name": "_to",
          "type": "address"
        },
        {
          "internalType": "uint256",
          "name": "_value",
          "type": "uint256"
        }
      ],
      "name": "transferFrom",
      "outputs": [
        {
          "internalType": "bool",
          "name": "success",
          "type": "bool"
        }
      ],
      "stateMutability": "nonpayable",
      "type": "function"
    },
    {
      "inputs": [
        {
          "internalType": "address",
          "name": "_to",
          "type": "address"
        },
        {
          "internalType": "uint256",
          "name": "amount",
          "type": "uint256"
        }
      ],
      "name": "mint",
      "outputs": [
        {
          "internalType": "bool",
          "name": "",
          "type": "bool"
        }
      ],
      "stateMutability": "nonpayable",
      "type": "function"
    },
    {
      "inputs": [
        {
          "internalType": "address",
          "name": "account",
          "type": "address"
        },
        {
          "internalType": "uint256",
          "name": "amount",
          "type": "uint256"
        }
      ],
      "name": "burn",
      "outputs": [
        {
          "internalType": "bool",
          "name": "success",
          "type": "bool"
        }
      ],
      "stateMutability": "nonpayable",
      "type": "function"
    }
  ],
  "bytecode": "0x60806040523480156200001157600080fd5b5060405162001cd538038062001cd583398181016040528101906200003791906200023e565b83600190805190602001906200004f92919062000105565b5081600290805190602001906200006892919062000105565b508260048190555080600560003373ffffffffffffffffffffffffffffffffffffffff1673ffffffffffffffffffffffffffffffffffffffff1681526020019081526020016000208190555080600381905550336000806101000a81548173ffffffffffffffffffffffffffffffffffffffff021916908373ffffffffffffffffffffffffffffffffffffffff1602179055505050505062000431565b828054620001139062000383565b90600052602060002090601f01602090048101928262000137576000855562000183565b82601f106200015257805160ff191683800117855562000183565b8280016001018555821562000183579182015b828111156200018257825182559160200191906001019062000165565b5b50905062000192919062000196565b5090565b5b80821115620001b157600081600090555060010162000197565b5090565b6000620001cc620001c68462000310565b620002dc565b905082815260208101848484011115620001e557600080fd5b620001f28482856200034d565b509392505050565b600082601f8301126200020c57600080fd5b81516200021e848260208601620001b5565b91505092915050565b600081519050620002388162000417565b92915050565b600080600080608085870312156200025557600080fd5b600085015167ffffffffffffffff8111156200027057600080fd5b6200027e87828801620001fa565b9450506020620002918782880162000227565b935050604085015167ffffffffffffffff811115620002af57600080fd5b620002bd87828801620001fa565b9250506060620002d08782880162000227565b91505092959194509250565b6000604051905081810181811067ffffffffffffffff82111715620003065762000305620003e8565b5b8060405250919050565b600067ffffffffffffffff8211156200032e576200032d620003e8565b5b601f19601f8301169050602081019050919050565b6000819050919050565b60005b838110156200036d57808201518184015260208101905062000350565b838111156200037d576000848401525b50505050565b600060028204905060018216806200039c57607f821691505b60208210811415620003b357620003b2620003b9565b5b50919050565b7f4e487b7100000000000000000000000000000000000000000000000000000000600052602260045260246000fd5b7f4e487b7100000000000000000000000000000000000000000000000000000000600052604160045260246000fd5b620004228162000343565b81146200042e57600080fd5b50565b61189480620004416000396000f3fe608060405234801561001057600080fd5b50600436106100b45760003560e01c806355b6ed5c1161007157806355b6ed5c146101a357806370a08231146101d357806395d89b41146102035780639dc29fac14610221578063a9059cbb14610251578063f851a44014610281576100b4565b806306fdde03146100b9578063095ea7b3146100d757806323b872dd14610107578063313ce567146101375780633eaaf86b1461015557806340c10f1914610173575b600080fd5b6100c161029f565b6040516100ce9190611551565b60405180910390f35b6100f160048036038101906100ec9190611247565b61032d565b6040516100fe9190611536565b60405180910390f35b610121600480360381019061011c91906111f8565b6105b1565b60405161012e9190611536565b60405180910390f35b61013f610967565b60405161014c9190611653565b60405180910390f35b61015d61096d565b60405161016a9190611653565b60405180910390f35b61018d60048036038101906101889190611247565b610973565b60405161019a9190611536565b60405180910390f35b6101bd60048036038101906101b891906111bc565b610b02565b6040516101ca9190611653565b60405180910390f35b6101ed60048036038101906101e89190611193565b610b89565b6040516101fa9190611653565b60405180910390f35b61020b610bd2565b6040516102189190611551565b60405180910390f35b61023b60048036038101906102369190611247565b610c60565b6040516102489190611536565b60405180910390f35b61026b60048036038101906102669190611247565b610e1b565b6040516102789190611536565b60405180910390f35b610289611039565b604051610296919061151b565b60405180910390f35b600180546102ac9061178f565b80601f01602080910402602001604051908101604052809291908181526020018280546102d89061178f565b80156103255780601f106102fa57610100808354040283529160200191610325565b820191906000526020600020905b81548152906001019060200180831161030857829003601f168201915b505050505081565b600080600660003373ffffffffffffffffffffffffffffffffffffffff1673ffffffffffffffffffffffffffffffffffffffff16815260200190815260200160002060008573ffffffffffffffffffffffffffffffffffffffff1673ffffffffffffffffffffffffffffffffffffffff1681526020019081526020016000208190555081600560003373ffffffffffffffffffffffffffffffffffffffff1673ffffffffffffffffffffffffffffffffffffffff168152602001908152602001600020541015610432576040517f08c379a0000000000000000000000000000000000000000000000000000000008152600401610429906115d3565b60405180910390fd5b6104c182600660003373ffffffffffffffffffffffffffffffffffffffff1673ffffffffffffffffffffffffffffffffffffffff16815260200190815260200160002060008673ffffffffffffffffffffffffffffffffffffffff1673ffffffffffffffffffffffffffffffffffffffff1681526020019081526020016000205461105d90919063ffffffff16565b600660003373ffffffffffffffffffffffffffffffffffffffff1673ffffffffffffffffffffffffffffffffffffffff16815260200190815260200160002060008573ffffffffffffffffffffffffffffffffffffffff1673ffffffffffffffffffffffffffffffffffffffff16815260200190815260200160002081905550818373ffffffffffffffffffffffffffffffffffffffff163373ffffffffffffffffffffffffffffffffffffffff167fb3fd5071835887567a0671151121894ddccc2842f1d10bedad13e0d17cace9a74260405161059f9190611653565b60405180910390a46001905092915050565b600081600660008673ffffffffffffffffffffffffffffffffffffffff1673ffffffffffffffffffffffffffffffffffffffff16815260200190815260200160002060003373ffffffffffffffffffffffffffffffffffffffff1673ffffffffffffffffffffffffffffffffffffffff168152602001908152602001600020541015801561067e575081600560008673ffffffffffffffffffffffffffffffffffffffff1673ffffffffffffffffffffffffffffffffffffffff1681526020019081526020016000205410155b6106bd576040517f08c379a00000000000000000000000000000000000000000000000000000000081526004016106b490611613565b60405180910390fd5b61070f82600560008773ffffffffffffffffffffffffffffffffffffffff1673ffffffffffffffffffffffffffffffffffffffff168152602001908152602001600020546110bb90919063ffffffff16565b600560008673ffffffffffffffffffffffffffffffffffffffff1673ffffffffffffffffffffffffffffffffffffffff168152602001908152602001600020819055506107a482600560008673ffffffffffffffffffffffffffffffffffffffff1673ffffffffffffffffffffffffffffffffffffffff1681526020019081526020016000205461105d90919063ffffffff16565b600560008573ffffffffffffffffffffffffffffffffffffffff1673ffffffffffffffffffffffffffffffffffffffff1681526020019081526020016000208190555061087682600660008773ffffffffffffffffffffffffffffffffffffffff1673ffffffffffffffffffffffffffffffffffffffff16815260200190815260200160002060003373ffffffffffffffffffffffffffffffffffffffff1673ffffffffffffffffffffffffffffffffffffffff168152602001908152602001600020546110bb90919063ffffffff16565b600660008673ffffffffffffffffffffffffffffffffffffffff1673ffffffffffffffffffffffffffffffffffffffff16815260200190815260200160002060003373ffffffffffffffffffffffffffffffffffffffff1673ffffffffffffffffffffffffffffffffffffffff16815260200190815260200160002081905550818373ffffffffffffffffffffffffffffffffffffffff168573ffffffffffffffffffffffffffffffffffffffff167f9ed053bb818ff08b8353cd46f78db1f0799f31c9e4458fdb425c10eccd2efc44426040516109549190611653565b60405180910390a4600190509392505050565b60045481565b60035481565b60008060009054906101000a900473ffffffffffffffffffffffffffffffffffffffff1673ffffffffffffffffffffffffffffffffffffffff163373ffffffffffffffffffffffffffffffffffffffff1614610a04576040517f08c379a00000000000000000000000000000000000000000000000000000000081526004016109fb906115b3565b60405180910390fd5b6000821415610a48576040517f08c379a0000000000000000000000000000000000000000000000000000000008152600401610a3f906115f3565b60405180910390fd5b610a9a82600560008673ffffffffffffffffffffffffffffffffffffffff1673ffffffffffffffffffffffffffffffffffffffff1681526020019081526020016000205461105d90919063ffffffff16565b600560008573ffffffffffffffffffffffffffffffffffffffff1673ffffffffffffffffffffffffffffffffffffffff16815260200190815260200160002081905550610af28260035461105d90919063ffffffff16565b6003819055506001905092915050565b6000600660008473ffffffffffffffffffffffffffffffffffffffff1673ffffffffffffffffffffffffffffffffffffffff16815260200190815260200160002060008373ffffffffffffffffffffffffffffffffffffffff1673ffffffffffffffffffffffffffffffffffffffff16815260200190815260200160002054905092915050565b6000600560008373ffffffffffffffffffffffffffffffffffffffff1673ffffffffffffffffffffffffffffffffffffffff168152602001908152602001600020549050919050565b60028054610bdf9061178f565b80601f0160208091040260200160405190810160405280929190818152602001828054610c0b9061178f565b8015610c585780601f10610c2d57610100808354040283529160200191610c58565b820191906000526020600020905b815481529060010190602001808311610c3b57829003601f168201915b505050505081565b60008060009054906101000a900473ffffffffffffffffffffffffffffffffffffffff1673ffffffffffffffffffffffffffffffffffffffff163373ffffffffffffffffffffffffffffffffffffffff1614610cf1576040517f08c379a0000000000000000000000000000000000000000000000000000000008152600401610ce8906115b3565b60405180910390fd5b600073ffffffffffffffffffffffffffffffffffffffff168373ffffffffffffffffffffffffffffffffffffffff161415610d61576040517f08c379a0000000000000000000000000000000000000000000000000000000008152600401610d5890611633565b60405180910390fd5b610db382600560008673ffffffffffffffffffffffffffffffffffffffff1673ffffffffffffffffffffffffffffffffffffffff168152602001908152602001600020546110bb90919063ffffffff16565b600560008573ffffffffffffffffffffffffffffffffffffffff1673ffffffffffffffffffffffffffffffffffffffff16815260200190815260200160002081905550610e0b826003546110bb90919063ffffffff16565b6003819055506001905092915050565b600081600560003373ffffffffffffffffffffffffffffffffffffffff1673ffffffffffffffffffffffffffffffffffffffff168152602001908152602001600020541015610e9f576040517f08c379a0000000000000000000000000000000000000000000000000000000008152600401610e9690611593565b60405180910390fd5b610ef182600560003373ffffffffffffffffffffffffffffffffffffffff1673ffffffffffffffffffffffffffffffffffffffff168152602001908152602001600020546110bb90919063ffffffff16565b600560003373ffffffffffffffffffffffffffffffffffffffff1673ffffffffffffffffffffffffffffffffffffffff16815260200190815260200160002081905550610f8682600560008673ffffffffffffffffffffffffffffffffffffffff1673ffffffffffffffffffffffffffffffffffffffff1681526020019081526020016000205461105d90919063ffffffff16565b600560008573ffffffffffffffffffffffffffffffffffffffff1673ffffffffffffffffffffffffffffffffffffffff16815260200190815260200160002081905550818373ffffffffffffffffffffffffffffffffffffffff163373ffffffffffffffffffffffffffffffffffffffff167f9ed053bb818ff08b8353cd46f78db1f0799f31c9e4458fdb425c10eccd2efc44426040516110279190611653565b60405180910390a46001905092915050565b60008054906101000a900473ffffffffffffffffffffffffffffffffffffffff1681565b600080828461106c919061168a565b9050838110156110b1576040517f08c379a00000000000000000000000000000000000000000000000000000000081526004016110a890611573565b60405180910390fd5b8091505092915050565b60006110fd83836040518060400160405280601e81526020017f536166654d6174683a207375627472616374696f6e206f766572666c6f770000815250611105565b905092915050565b600083831115829061114d576040517f08c379a00000000000000000000000000000000000000000000000000000000081526004016111449190611551565b60405180910390fd5b506000838561115c91906116e0565b9050809150509392505050565b60008135905061117881611830565b92915050565b60008135905061118d81611847565b92915050565b6000602082840312156111a557600080fd5b60006111b384828501611169565b91505092915050565b600080604083850312156111cf57600080fd5b60006111dd85828601611169565b92505060206111ee85828601611169565b9150509250929050565b60008060006060848603121561120d57600080fd5b600061121b86828701611169565b935050602061122c86828701611169565b925050604061123d8682870161117e565b9150509250925092565b6000806040838503121561125a57600080fd5b600061126885828601611169565b92505060206112798582860161117e565b9150509250929050565b61128c81611714565b82525050565b61129b81611726565b82525050565b60006112ac8261166e565b6112b68185611679565b93506112c681856020860161175c565b6112cf8161181f565b840191505092915050565b60006112e7601b83611679565b91507f536166654d6174683a206164646974696f6e206f766572666c6f7700000000006000830152602082019050919050565b6000611327601483611679565b91507f496e73756666696369656e742062616c616e63650000000000000000000000006000830152602082019050919050565b6000611367600e83611679565b91507f4e6f207065726d697373696f6e730000000000000000000000000000000000006000830152602082019050919050565b60006113a7603f83611679565b91507f496e7375666666696369656e742062616c616e63652c206f7220796f7520646f60008301527f206e6f742068617665206e6563657373617279207065726d697373696f6e73006020830152604082019050919050565b600061140d601983611679565b91507f796f752063616e206e6f74206d696e74203020746f6b656e73000000000000006000830152602082019050919050565b600061144d602d83611679565b91507f496e73756666696369656e7420616c6c6f77616e6365732c206f72206f776e6560008301527f72736869702062616c616e6365000000000000000000000000000000000000006020830152604082019050919050565b60006114b3602983611679565b91507f596f752063616e206e6f74206275726e20746f6b656e732066726f6d2074686960008301527f73206164647265737300000000000000000000000000000000000000000000006020830152604082019050919050565b61151581611752565b82525050565b60006020820190506115306000830184611283565b92915050565b600060208201905061154b6000830184611292565b92915050565b6000602082019050818103600083015261156b81846112a1565b905092915050565b6000602082019050818103600083015261158c816112da565b9050919050565b600060208201905081810360008301526115ac8161131a565b9050919050565b600060208201905081810360008301526115cc8161135a565b9050919050565b600060208201905081810360008301526115ec8161139a565b9050919050565b6000602082019050818103600083015261160c81611400565b9050919050565b6000602082019050818103600083015261162c81611440565b9050919050565b6000602082019050818103600083015261164c816114a6565b9050919050565b6000602082019050611668600083018461150c565b92915050565b600081519050919050565b600082825260208201905092915050565b600061169582611752565b91506116a083611752565b9250827fffffffffffffffffffffffffffffffffffffffffffffffffffffffffffffffff038211156116d5576116d46117c1565b5b828201905092915050565b60006116eb82611752565b91506116f683611752565b925082821015611709576117086117c1565b5b828203905092915050565b600061171f82611732565b9050919050565b60008115159050919050565b600073ffffffffffffffffffffffffffffffffffffffff82169050919050565b6000819050919050565b60005b8381101561177a57808201518184015260208101905061175f565b83811115611789576000848401525b50505050565b600060028204905060018216806117a757607f821691505b602082108114156117bb576117ba6117f0565b5b50919050565b7f4e487b7100000000000000000000000000000000000000000000000000000000600052601160045260246000fd5b7f4e487b7100000000000000000000000000000000000000000000000000000000600052602260045260246000fd5b6000601f19601f8301169050919050565b61183981611714565b811461184457600080fd5b50565b61185081611752565b811461185b57600080fd5b5056fea2646970667358221220e201324d9971bd0d59eb0ab7450c05724e6d91ba27e76bfbe83e35518a47638964736f6c63430008000033",
  "immutableReferences": {},
  "source": "// SPDX-License-Identifier: MIT\npragma solidity ^0.8.0;\n\nimport \".././contracts/util/SafeMath.sol\";\n// import \"contracts/util/ReentrancyGuard.sol\";\n\ncontract Token{\n\n  using SafeMath for uint256;\n  address public admin;\n\n  string public name;\n  string public symbol;\n  uint256 public _totalSupply; \n  uint256 public decimals;\n//   string version;// keeps a track of the contract version.\n\n  mapping(address => uint256) _balances; \n  mapping(address => mapping(address => uint256)) _allowances;\n\n  event Transfer(\n      address indexed _from,\n      address indexed _to,\n      uint256 indexed _value, // Number of tokens transfered.\n      uint256 _timeStamp\n  );\n\n  event Approval (\n      address indexed _owner,\n      address indexed _spender,\n      uint256 indexed _value,\n      uint256 _timeStamp\n  );\n\n  constructor(string memory _name, uint256 _decimals, string memory _symbol, uint256 _initialSupply){\n    name = _name;\n    symbol = _symbol;\n    decimals = _decimals;\n    _balances[msg.sender] = _initialSupply; \n    _totalSupply = _initialSupply;\n\tadmin = msg.sender;\n  }\n\n\n  function balanceOf(address _account) public view returns (uint256)  {\n    return _balances[_account];\n  }\n\n  function allowances(address _owner,address _spender) public view returns(uint256)  {\n      return _allowances[_owner][_spender];\n  }\n\n    function transfer(address _to, uint256 _value)  public returns(bool success) {\n       require(_balances[msg.sender] >= _value, \"Insufficient balance\"); // check if there are enough tokens in the account.\n       \n       _balances[msg.sender] = _balances[msg.sender].sub(_value);\n       _balances[_to] =_balances[_to].add(_value);\n       \n       emit Transfer(msg.sender, _to, _value, block.timestamp);\n       return true;\n   }\n\n   function approve(address _spender, uint256 _value) public returns(bool) {\n       \n       _allowances[msg.sender][_spender] = 0;\n       \n       require(_balances[msg.sender] >= _value , \"Insuffficient balance, or you do not have necessary permissions\");\n       _allowances[msg.sender][_spender] =_allowances[msg.sender][_spender].add(_value);\n\n       emit Approval(msg.sender, _spender, _value, block.timestamp);\n       return true;\n\n   }\n\n   function transferFrom(address _from, address _to, uint256 _value) public returns (bool success)  {\n      //  require(_allowances[_from][msg.sender]>=_value, \"Insufficient allowances\");\n       require(_allowances[_from][msg.sender]>=_value && _balances[_from]>= _value, \"Insufficient allowances, or ownership balance\");\n\n       _balances[_from] = _balances[_from].sub(_value);\n       _balances[_to] = _balances[_to].add(_value);\n\n       _allowances[_from][msg.sender] = _allowances[_from][msg.sender].sub(_value);\n\n       emit Transfer(_from, _to, _value, block.timestamp);\n\n       return true;\n   }\n\n   \n   function mint(address _to, uint256 amount) public onlyAdmin() returns(bool)   {\n       require(amount !=0, \"you can not mint 0 tokens\");\n\n       _balances[_to] = _balances[_to].add(amount);\n       _totalSupply = _totalSupply.add(amount);\n\n       return true;\n   }\n\n   function burn(address account,uint256 amount) public onlyAdmin() returns(bool success)  {\n       require(account !=address(0), \"You can not burn tokens from this address\");\n\n       _balances[account] = _balances[account].sub(amount);\n       _totalSupply = _totalSupply.sub(amount);\n\n       return true;\n   }\n\n   modifier onlyAdmin()\t{\n\t   require(msg.sender == admin, \"No permissions\");\n\t   _;\n   }\n\n  }",
  "sourcePath": "/Volumes/media/1 - OSO/Projects/Open Finance/Build/open_build/open-core-contracts/contracts/Token.sol",
  "compiler": {
    "name": "solc",
    "version": "0.8.0+commit.c7dfd78e.Emscripten.clang"
  },
  "schemaVersion": "3.3.2",
  "updatedAt": "2020-12-22T17:43:34.485Z",
  "networkType": "ethereum",
  "devdoc": {
    "kind": "dev",
    "methods": {},
    "version": 1
  },
  "userdoc": {
    "kind": "user",
    "methods": {},
    "version": 1
  }
}